{
  "_format": "hh3-artifact-1",
  "contractName": "EduCertificate",
  "sourceName": "contracts/EduCertificate.sol",
  "abi": [
    {
      "inputs": [
        {
          "internalType": "address",
          "name": "_admin",
          "type": "address"
        }
      ],
      "stateMutability": "nonpayable",
      "type": "constructor"
    },
    {
      "anonymous": false,
      "inputs": [
        {
          "indexed": true,
          "internalType": "uint256",
          "name": "certId",
          "type": "uint256"
        },
        {
          "indexed": true,
          "internalType": "address",
          "name": "issuer",
          "type": "address"
        },
        {
          "indexed": false,
          "internalType": "bytes32",
          "name": "certHash",
          "type": "bytes32"
        }
      ],
      "name": "CertificateIssued",
      "type": "event"
    },
    {
      "anonymous": false,
      "inputs": [
        {
          "indexed": true,
          "internalType": "uint256",
          "name": "certId",
          "type": "uint256"
        }
      ],
      "name": "CertificateRevoked",
      "type": "event"
    },
    {
      "anonymous": false,
      "inputs": [
        {
          "indexed": true,
          "internalType": "uint256",
          "name": "certId",
          "type": "uint256"
        },
        {
          "indexed": false,
          "internalType": "bytes32",
          "name": "newHash",
          "type": "bytes32"
        }
      ],
      "name": "CertificateUpdated",
      "type": "event"
    },
    {
      "anonymous": false,
      "inputs": [
        {
          "indexed": false,
          "internalType": "address",
          "name": "officer",
          "type": "address"
        }
      ],
      "name": "OfficerAdded",
      "type": "event"
    },
    {
      "anonymous": false,
      "inputs": [
        {
          "indexed": false,
          "internalType": "address",
          "name": "officer",
          "type": "address"
        }
      ],
      "name": "OfficerRemoved",
      "type": "event"
    },
    {
      "inputs": [
        {
          "internalType": "address",
          "name": "officer",
          "type": "address"
        }
      ],
      "name": "addOfficer",
      "outputs": [],
      "stateMutability": "nonpayable",
      "type": "function"
    },
    {
      "inputs": [],
      "name": "admin",
      "outputs": [
        {
          "internalType": "address",
          "name": "",
          "type": "address"
        }
      ],
      "stateMutability": "view",
      "type": "function"
    },
    {
      "inputs": [
        {
          "internalType": "uint256",
          "name": "certId",
          "type": "uint256"
        }
      ],
      "name": "getCertificate",
      "outputs": [
        {
          "internalType": "address",
          "name": "issuer",
          "type": "address"
        },
        {
          "internalType": "bytes32",
          "name": "certHash",
          "type": "bytes32"
        },
        {
          "internalType": "uint256",
          "name": "issuedAt",
          "type": "uint256"
        },
        {
          "internalType": "bool",
          "name": "revoked",
          "type": "bool"
        }
      ],
      "stateMutability": "view",
      "type": "function"
    },
    {
      "inputs": [
        {
          "internalType": "bytes32",
          "name": "certHash",
          "type": "bytes32"
        }
      ],
      "name": "issueCertificate",
      "outputs": [
        {
          "internalType": "uint256",
          "name": "",
          "type": "uint256"
        }
      ],
      "stateMutability": "nonpayable",
      "type": "function"
    },
    {
      "inputs": [],
      "name": "nextCertId",
      "outputs": [
        {
          "internalType": "uint256",
          "name": "",
          "type": "uint256"
        }
      ],
      "stateMutability": "view",
      "type": "function"
    },
    {
      "inputs": [
        {
          "internalType": "address",
          "name": "",
          "type": "address"
        }
      ],
      "name": "officers",
      "outputs": [
        {
          "internalType": "bool",
          "name": "",
          "type": "bool"
        }
      ],
      "stateMutability": "view",
      "type": "function"
    },
    {
      "inputs": [
        {
          "internalType": "address",
          "name": "officer",
          "type": "address"
        }
      ],
      "name": "removeOfficer",
      "outputs": [],
      "stateMutability": "nonpayable",
      "type": "function"
    },
    {
      "inputs": [
        {
          "internalType": "uint256",
          "name": "certId",
          "type": "uint256"
        }
      ],
      "name": "revokeCertificate",
      "outputs": [],
      "stateMutability": "nonpayable",
      "type": "function"
    },
    {
      "inputs": [
        {
          "internalType": "uint256",
          "name": "certId",
          "type": "uint256"
        },
        {
          "internalType": "bytes32",
          "name": "newHash",
          "type": "bytes32"
        }
      ],
      "name": "updateCertificate",
      "outputs": [],
      "stateMutability": "nonpayable",
      "type": "function"
    },
    {
      "inputs": [
        {
          "internalType": "uint256",
          "name": "certId",
          "type": "uint256"
        },
        {
          "internalType": "bytes32",
          "name": "hashToVerify",
          "type": "bytes32"
        }
      ],
      "name": "verifyCertificate",
      "outputs": [
        {
          "internalType": "bool",
          "name": "valid",
          "type": "bool"
        },
        {
          "internalType": "bool",
          "name": "revoked",
          "type": "bool"
        }
      ],
      "stateMutability": "view",
      "type": "function"
    }
  ],
  "bytecode": "0x608060405260016003553480156013575f5ffd5b5060405161084f38038061084f8339810160408190526030916053565b5f80546001600160a01b0319166001600160a01b0392909216919091179055607e565b5f602082840312156062575f5ffd5b81516001600160a01b03811681146077575f5ffd5b9392505050565b6107c48061008b5f395ff3fe608060405234801561000f575f5ffd5b506004361061009b575f3560e01c8063a1f8182411610063578063a1f81824146101b0578063c3b451a2146101c3578063d9803cb2146101ed578063f2f032f314610200578063f851a44014610213575f5ffd5b806306f5497e1461009f578063084866dd146100b45780632a8e6a8e146100eb57806351640fee14610102578063719a0f8c1461019d575b5f5ffd5b6100b26100ad366004610706565b61023d565b005b6100d66100c236600461071d565b60026020525f908152604090205460ff1681565b60405190151581526020015b60405180910390f35b6100f460035481565b6040519081526020016100e2565b610171610110366004610706565b5f90815260016020818152604092839020835160a08101855281548152928101546001600160a01b0316918301829052600281015493830184905260038101546060840181905260049091015460ff16151560809093018390529093909190565b604080516001600160a01b039095168552602085019390935291830152151560608201526080016100e2565b6100b26101ab36600461071d565b6102fb565b6100f46101be366004610706565b610398565b6101d66101d136600461074a565b6104d0565b6040805192151583529015156020830152016100e2565b6100b26101fb36600461071d565b610552565b6100b261020e36600461074a565b6105eb565b5f54610225906001600160a01b031681565b6040516001600160a01b0390911681526020016100e2565b5f818152600160208190526040909120015481906001600160a01b031633148061027057505f546001600160a01b031633145b6102b25760405162461bcd60e51b815260206004820152600e60248201526d2737ba1031b2b93a1037bbb732b960911b60448201526064015b60405180910390fd5b5f828152600160208190526040808320600401805460ff19169092179091555183917fefa6c5f47ac2523bb4db18032377bf7fdce0fa9d86eddcae1ca9bba38be615d791a25050565b5f546001600160a01b031633146103415760405162461bcd60e51b815260206004820152600a60248201526927b7363c9030b236b4b760b11b60448201526064016102a9565b6001600160a01b0381165f81815260026020908152604091829020805460ff1916905590519182527fc71ac73682f965d639a2f97202d5b162f5ea75f1ef0e933bad7f1db870a4c25491015b60405180910390a150565b5f80546001600160a01b03163314806103bf5750335f9081526002602052604090205460ff165b6103fc5760405162461bcd60e51b815260206004820152600e60248201526d139bdd08185d5d1a1bdc9a5e995960921b60448201526064016102a9565b600380546040805160a08101825282815233602080830191825282840188815242606085019081525f6080860181815288825260019485905296812095518655935192850180546001600160a01b0319166001600160a01b0390941693909317909255516002840155518286015591516004909101805460ff1916911515919091179055825491929061048e8361076a565b9091555050604051838152339082907fb4a9555bece36e8e71df9f5452191cff849f206d9d0e7996a4d76d8831bf22f69060200160405180910390a392915050565b5f828152600160208181526040808420815160a0810183528154808252948201546001600160a01b031693810193909352600281015491830191909152600381015460608301526004015460ff161515608082015282918203610539575f5f925092505061054b565b83816040015114925080608001519150505b9250929050565b5f546001600160a01b031633146105985760405162461bcd60e51b815260206004820152600a60248201526927b7363c9030b236b4b760b11b60448201526064016102a9565b6001600160a01b0381165f81815260026020908152604091829020805460ff1916600117905590519182527f0a5e350574f3293d09c9df68b92156ccec15be9e07b6cab9616ec2b486d2a4d9910161038d565b5f828152600160208190526040909120015482906001600160a01b031633148061061e57505f546001600160a01b031633145b61065b5760405162461bcd60e51b815260206004820152600e60248201526d2737ba1031b2b93a1037bbb732b960911b60448201526064016102a9565b5f8381526001602052604090206004015460ff16156106b25760405162461bcd60e51b815260206004820152601360248201527210d95c9d1a599a58d85d19481c995d9bdad959606a1b60448201526064016102a9565b5f83815260016020526040908190206002018390555183907f1ce4bd7fc97bf4f803cdb1f841b3edde05c3b45164e2b37f716cf0e3c085b3b4906106f99085815260200190565b60405180910390a2505050565b5f60208284031215610716575f5ffd5b5035919050565b5f6020828403121561072d575f5ffd5b81356001600160a01b0381168114610743575f5ffd5b9392505050565b5f5f6040838503121561075b575f5ffd5b50508035926020909101359150565b5f6001820161078757634e487b7160e01b5f52601160045260245ffd5b506001019056fea264697066735822122072f9683826dd4b1c970c47596ef44e4fb8a8832edb4cf6c878b4d35a318e716564736f6c634300081c0033",
  "linkReferences": {},
  "deployedLinkReferences": {},
  "immutableReferences": {},
  "inputSourceName": "project/contracts/EduCertificate.sol",
  "buildInfoId": "solc-0_8_28-aa97d123a0f8bcc8949c41e1195b968c043eb50d"
}